:020000040800F2
:10000000084A0020ED010008F15B0008F102000839
:100010009154000895080008856E00080000000053
:10002000000000000000000000000000DD5E00088D
:1000300053090008000000003F020008DF5E0008CE
:10004000070200080702000807020008070200086C
:10005000070200080702000807020008070200085C
:10006000070200080702000807020008A5080008A8
:10007000070200080702000807020008070200083C
:1000800007020008000000009505000807020008AC
:1000900007020008790900080702000807020008A3
:1000A000895F0008A15F000807020008955F00084B
:1000B0000702000807020008AD5F000807020008F9
:1000C00007020008070200080702000807020008EC
:1000D000070200080702000807020008796E0008FE
:1000E0005509000807020008070200080702000877
:1000F00007020008070200080702000800000000CD
:1001000000000000070200080000000007020008CD
:100110000702000800000000B95F0008070200089D
:10012000070200080702000807020008070200088B
:10013000070200080000000000000000070200089D
:1001400099080008070200080000000000000000F5
:10015000000000000000000000000000000000009F
:10016000000000000000000000000000070200087E
:10017000070200080000000000000000000000006E
:10018000000000000702000800000000000000005E
:10019000000000000000000000000000000000005F
:1001A000000000000000000007020008070200082D
:1001B000070200080702000807020008000000000C
:1001C000000000000702000800000000000000001E
:1001D0000702000807020008DFF80CD000F026F93B
:1001E0000048004789050008084A00200648804763
:1001F00006480047FEE7FEE7FEE7FEE7FEE7FEE70C
:10020000FEE7FEE7FEE7FEE7795F0008D901000898
:10021000EFF3108072B6704780F310887047424A3F
:100220001368012B04D04FF0010313603F4A1060A4
:100230003F4A11603F484FF0805101607047EFF333
:10024000108272B63848016851B34FF00001016066
:100250003648016891B1EFF309811EF0100F08BF15
:1002600021ED108B21E9F00F4FF000041EF0100F6C
:1002700008BF012441F8044D006801602C49096859
:10028000096808C9B1E8F00F002B18BFB1EC108B5A
:1002900081F309884EF0100E002B18BF2EF0100EBF
:1002A00082F310884EF0040E704721490860EFF386
:1002B000148222F0040282F314881C494FF00000DB
:1002C000086019494FF0010008601B481B49D0F82D
:1002D000002041EA0201016016484FF080510160A0
:1002E00017480068006880F3088861B662B67047F6
:1002F0001EF0040F0CBFEFF30880EFF3098020E934
:10030000F00F40F804ED40F804ED1EF0040F0CBFB0
:1003100080F3088880F3098800B506F07DFF5DF85A
:1003200004EB4EF0040E7047940000208C00002077
:100330009000002004ED00E020ED00E00000FFFF51
:1003400008ED00E02DE9F05F0546002092469B464F
:1003500088460646814640241BE0284641464746DB
:10036000224600F053F853465A46C01A914110D322
:1003700011461846224600F03AF82D1A67EB01089C
:100380004F4622460120002100F031F817EB00090A
:100390004E41201EA4F10104DFDC484631462A46C6
:1003A0004346BDE8F09F40EA01039B0703D009E004
:1003B00008C9121F08C0042AFAD203E011F8013B51
:1003C00000F8013B521EF9D27047D2B201E000F8AA
:1003D000012B491EFBD270470022F6E710B51346E9
:1003E0000A4604461946FFF7F0FF204610BD202AB2
:1003F00004DB203A00FA02F1002070479140C2F17C
:10040000200320FA03F3194390407047202A04DBAD
:10041000203A21FA02F00021704721FA02F3D0407D
:10042000C2F120029140084319467047064C074D1F
:1004300006E0E06840F0010394E8070098471034B4
:10044000AC42F6D3FFF7CCFEE08600080087000838
:100450009FED241AB5EE002A47F6CC630021B7EED3
:10046000004AC0F6000320EE010A30EE020ABDEE9B
:10047000C01AB5EEC00A11EE100AF1EE10FA9FEDA7
:100480001A1AB8BF013802EE100AB8EEC22A30EECE
:10049000420A9FED162A20EE010ABDEEC01A11EEA7
:1004A000100A30EE021A0246B1EB502F18BF00229C
:1004B00002EE102A03EB8203B1EB502F18BFB0EE0F
:1004C000410AB8EE421A93ED002A93ED013A30EE5C
:1004D000410A34EE401A20EE030A21EE021A31EEF0
:1004E000000A704783F9223E00000044000000C467
:1004F0009FED221A47F6CC630021B7EE004AC0F602
:10050000000320EE010ABDEEC01AB5EEC00A11EEDE
:10051000100AF1EE10FA9FED1A1AB8BF013802EE78
:10052000100AB8EEC22A30EE420A9FED162A20EEDB
:10053000010ABDEEC01A11EE100A30EE021A024690
:10054000B1EB502F18BF002202EE102A03EB8203FA
:10055000B1EB502F18BFB0EE410AB8EE421A93ED3E
:10056000002A93ED013A30EE410A34EE401A20EEB3
:10057000030A21EE021A31EE000A704783F9223E87
:1005800000000044000000C410B507F0D0FB0020BC
:1005900010BD000010B5044801F0D8F8BDE81040C7
:1005A000024801F0D3B800002C010020980100207F
:1005B00070B504460068816811F0010F2DD1816883
:1005C000174A11421AD18168D5432940491C8160DC
:1005D00002F06CFB06461BE0816811F0010F03D1AD
:1005E00081682940491C816002F060FB801B022861
:1005F0000ED920680068C043C00709D0E06D40F004
:100600001000E065206E40F001002066012070BD02
:1006100020680168C943C907DED1002070BD000011
:100620003F00008080ED061AC0ED071A80ED022A17
:10063000F5EEC00A80EC020A9FED110AF1EE10FA05
:1006400004DDF7EE002A82EEA01A01E0B0EE401AB7
:1006500080ED031A61EE020AC0ED040A61EE820A1F
:10066000C0ED050A80ED080A80ED090A80ED0A0A4E
:1006700080ED0B0A80ED0C0A80ED0D0A704700003A
:100680000000000010B504462DED048BF0EE408A0A
:10069000B0EE619AF0EE419AB0EE608A18EE900AE0
:1006A00006F008FCE8B318EE100A06F003FCC0B32D
:1006B00019EE900A06F0FEFB98B319EE100A06F048
:1006C000F9FB70B3206A06F0F5FB50B3606A06F0E0
:1006D000F1FB30B3A06A06F0EDFB10B3E06A06F060
:1006E000E9FBF0B194ED083A94ED0A1A94ED050A8D
:1006F00073EE692A94ED092A00EE221A72EE490A75
:1007000084ED0A1AD4ED0B1A40EE201AC4ED0B1A30
:1007100094ED060A00EE221A40EE201A84ED0C1A1F
:1007200000E018E0C4ED0D1A94ED000AD4ED040ABF
:1007300040EE438A00EE428A38EEC11A38EE610A72
:1007400001EE203A00EE202A84ED083A84ED092AD1
:10075000BDEC048B10BD9FED070A84ED080A84ED03
:10076000090A84ED0A0A84ED0B0A84ED0C0A84ED73
:100770000D0AEDE700000000014890ED060A704701
:10078000440700200C4890ED030A0C48D0ED000A05
:1007900030EE200ADFED0A0AB5EEC00AF1EE10FADB
:1007A00002D230EE200A704710EE100A0549884246
:1007B000F9DB30EE600A704744070020700000202B
:1007C000DA0FC940DA0FC94010B5DFED171AB6EEDF
:1007D000001A2DED028B9FED138ADFED140A9FEDB9
:1007E000140AB0EE482A1348FFF71CFF1148B0EE78
:1007F000481ADFED110A9FED110A383005F01EFA94
:100800001048DFED0F0A90ED000A0A48B1EE400AE9
:10081000383005F033FA0B490020091D0874BDEC8F
:10082000028B10BD17B7D1380000E143DA03AD39B0
:100830003D0A973E0C07002000409C4600004843BC
:10084000000000007000002010B51048FFF71AFFEC
:100850000E48D0ED0D0A90ED0C0A383005F02EFA56
:100860000A4C3834E06806F033FB20B1A06906F08A
:100870002FFB002809D105489FED050ABDE810406F
:10088000F0EE400A383005F0F9B910BD0C07002031
:1008900000000000FEE70000014801F0F3BA00008C
:1008A00004020020014801F0D3BD000090040020A4
:1008B0000D4902688A4201D20C4901E00B492031FE
:1008C000D2B21423083AB2FBF3F2436C02F01F02D7
:1008D00023F003031944816404498031C164012178
:1008E0009140016570470000080402400008024082
:1008F0000179074A02EB81024265054A4432491EEA
:10090000826501F01F0201219140C165704700001E
:10091000FC08024030B5D0E913456560446D14B160
:10092000D0E91645656090F8444004F01F050124A5
:10093000AC40056C6C60046863608368102B0368CE
:1009400003D099600068C26030BD9A600068C160E1
:1009500030BD704710B54FF4806002F0ADF84FF431
:10096000006002F0A9F8BDE810404FF4005002F01A
:10097000A3B872B6FEE7000010B5054801F0BDFF50
:10098000BDE81040034B044A4021014801F03CBF40
:10099000500200202C000020F004002030B587B069
:1009A00000220121124801F069FE002401204FF0CD
:1009B0008045CDE90240CDE900546FF07E40CDE99D
:1009C000044069460A4801F0EEFE0A481B21C0E9CE
:1009D0000015E912C0E902410461446152218461B9
:1009E000C0E90741024802F03AF807B030BD000004
:1009F0005002002018050020F0B5D1E901650C690E
:100A00002C430D68BEB145F080452C43D1E9066505
:100A1000354391F820704E69406D46EA07663543CC
:100A2000CE6803EBC303354300EBC3000023E0E8CB
:100A300002450A4C0AE044EA8544E7E7D618D55C4B
:100A4000D6F801601B1D45EA062520C0CD6804EBE1
:100A500015452D789D42F1D8F0BD0000587D000865
:100A6000704700002DE9F84F4FF000080446CDF81C
:100A700000800D4694F85820DFF8EC9361694746F2
:100A80004046012A0AD00126F84A84F8586041B14C
:100A9000296A012905D0A36EEBB129E00220BDE847
:100AA000F88F6868092838D1A96A4FF4785041B1A5
:100AB0002B6801F07C0100EA53400843E96A0843CF
:100AC00002E0296800EA51402168CB6C13400343DF
:100AD000CB64606621E0C4E91971A96A286A31B162
:100AE00001F07C01401E0843E96A084300E0401E13
:100AF00029682B79C1F3846103F01F0399400143F6
:100B0000A06E401EA066636E43EA0103636604D1D3
:100B10002068C16C11401943C164206804F07CF95D
:100B200058B995F8250098B12068C16895F8262035
:100B300021F4401141EA4251C160206804F074F987
:100B40008246206804F068F95AEA00000DD0FBE004
:100B500095F8260095F82410400540EA01512068D8
:100B6000C26822F440121143E6E7A86A30B1E86A8D
:100B700020B195F8250001285ED003E095F8250006
:100B8000012804D02068C16821F0007103E02068CA
:100B9000C16841F00071C16095F83000012852D061
:100BA0002068016921F002010161AA6829682068B2
:100BB000B2F1004F38D004F052F92068416921F0B9
:100BC0000041416120686969C268C2F3C1025200F4
:100BD00091402A69042A44D000EB82002B68026EFF
:100BE000DFF88CC203F0F84302EA0C020B431A430D
:100BF00042F00041016620682A69A96900EB820081
:100C0000026E22F080720A430266297F22682869F8
:100C1000012923D05FF0000102EB8000026E22F078
:100C200000720A4302668FE0002204F018F920687F
:100C3000416941F00041C4E7E06D40F02000E0650B
:100C40004FF00108A8E7D5E90D10014320680269BB
:100C500022F4FF7242F002021143A5E74FF0007147
:100C6000DAE7002104F0CEF8400320684FF00001DD
:100C700072D004F0C7F890FAA0F0B0FA80F12868BA
:100C800042036ED090FAA0F0B0FA80F0814204D115
:100C900000221146206804F0F9F80121206804F0D0
:100CA000B1F8400320684FF001015DD004F0AAF8CC
:100CB00090FAA0F0B0FA80F12868420359D090FA77
:100CC000A0F0B0FA80F0814204D100220121206816
:100CD00004F0DCF80221206804F094F84003206856
:100CE0004FF0020148D004F08DF890FAA0F0B0FA6D
:100CF00080F12868420344D090FAA0F0B0FA80F066
:100D0000814204D100220221206804F0BFF80321AF
:100D1000206804F077F8400320684FF0030133D0D7
:100D200004F070F890FAA0F0B0FA80F1286842035D
:100D30002FD090FAA0F0B0FA80F0814204D10022C6
:100D40000321206804F0A2F82068816811F0010FE7
:100D500022D0B6E000E004E004F054F8C0F384616F
:100D60008DE7C0F3846091E704F04CF8C0F3846130
:100D7000A2E7C0F38460A6E704F044F8C0F38461FE
:100D8000B7E7C0F38460BBE704F03CF8C0F38461CC
:100D9000CCE7C0F38460D0E72A7B296850F8B03FE5
:100DA000C1F3120C23EA0C0302F0180C314A22FAA8
:100DB0000CF20A4013430360E96849457ED1286874
:100DC00041031CD090FAA0F1B1FA81F1491C01F065
:100DD0001F0109294FEA403132D8002912D000BF43
:100DE00090FAA0F1B1FA81F101F1010101F01F01C6
:100DF00006FA01F609D100BFC0F3846109E0C0F32F
:100E00008461E3E7C0F38461EEE790FAA0F1B1FA00
:100E100081F101F1010101F01F0146EA816102D176
:100E2000C0F3846003E090FAA0F0B0FA80F000F123
:100E3000010000F01F0000EB400041EA00513AE0E1
:100E400000290ED090FAA0F1B1FA81F101F101016F
:100E500001F01F0106FA01F60ED100BFC0F3846154
:100E60000EE0C0F38461F1E700007F400040100411
:100E700000F0FF03FFFF070090FAA0F1B1FA81F143
:100E800001F1010101F01F0146EA816102D1C0F3C5
:100E9000846003E090FAA0F0B0FA80F000F1010065
:100EA00000F01F002B4A00EB400002EB005041EA2B
:100EB000000141F00071AA68206800E001E003F041
:100EC000CEFF25482A68024240D024488168244B3E
:100ED00001F0E0719A4202D0224B9A421BD10B02E0
:100EE00019D42268B2F1A04F30D1826841F40001D8
:100EF00022F0E0720A4382601B481C490068B0FB84
:100F0000F1F0801C00EB4000800000E0401E0090EB
:100F10000028FBD11AE0164D164BAA4207D1CD018D
:100F200005D422689A4211D041F0807109E0124D37
:100F3000AA420BD14A0209D422689A4206D041F44F
:100F40008001826822F0E0720A43826084F858705F
:100F50004046A4E5000020FE000008800003005089
:100F6000000021C31000C09044000020400D030089
:100F7000000052C700010050000084CB10B500688B
:100F8000B0F1A04F42D1224890ED010AD0ED020A03
:100F900030EE200ADFED1F0A80ED010AB5EEC00A2F
:100FA000F1EE10FA02D230EE200A06E010EE101A2E
:100FB000194A914203DD30EE600A80ED010A04F027
:100FC000CDFA16491648174A91ED070A80ED000A36
:100FD00091ED080A80ED010A92ED0C0A80ED020AFB
:100FE00092ED0D0A142280ED030A91ED040A0146E8
:100FF00080ED040A06481030FFF7D5F9044918229D
:10100000BDE810401031084803F0A8BE10BD000034
:1010100000000020DB0FC940DB0FC940880600201C
:10102000180100200C070020000400207047000079
:101030002DE9F04104463548806800F01F0520681E
:1010400003F0EAFE08BB2168C868C96C00F00040E4
:1010500011F4C07F00D190B194F85800012814D049
:10106000012084F858002046FFF7A2FA02004FF052
:1010700000030CD084F858301046BDE8F081E06DD4
:1010800040F02000E0650120F7E70220F5E7E06D81
:10109000C00504D5206E20F00800206600E023661D
:1010A000E06D42F20101884340F48050E065184F42
:1010B00021684FF0A046B94201D1304600E0084611
:1010C000884200D01DB9E06D20F48010E0656020FA
:1010D000086084F858302068B84200D0064686423E
:1010E00009D045B1062D06D0072D04D0E06D40F49F
:1010F0008010E065C0E7C16811F0007FBCD1816855
:10110000044B194041F008018160B5E7000300502D
:1011100000010050C0FFFF7F2DE9F0410446454823
:10112000806800F01F05206803F076FE08BB216888
:10113000C868C96C00F0004011F4C07F00D190B1C4
:1011400094F85800012814D0012084F85800204653
:10115000FFF72EFA01004FF000020CD084F858205F
:101160000846BDE8F081E06D40F02000E065012018
:10117000F7E70220F5E7E06DC00504D5206E20F00A
:101180000800206600E02266E06D42F20103984309
:1011900040F48050E065284B20684FF0A04698420C
:1011A00001D1374600E00746874200D01DB9E76D00
:1011B00027F48017E7656027076084F858202068C7
:1011C000C268920203D5426842F480624260A0691C
:1011D00008282068426807D022F040024260206858
:1011E000426842F0200206E022F0200242602068BD
:1011F000426842F0400242602068984201D1324683
:1012000000E00246824209D045B1062D06D0072DE6
:1012100004D0E06D40F48010E065A1E7C26812F0F0
:10122000007F9DD18268054B1A4042F0080282601F
:1012300096E700000003005000010050C0FFFF7F50
:10124000704770472DE9F047044690F858009CB06D
:101250000E464FF00009012815D0012084F85800EF
:1012600000251795189520684FF0A04840450ED1ED
:10127000284F0097384603F0D7FD8246206803F0D8
:10128000D3FD60B10EE002201CB0BDE8F087E06D38
:1012900040F02000E06584F858500120F4E7BAF1EE
:1012A000000F09D0E06D40F02000E0654FF001092B
:1012B00084F858504846E7E71748326840F61F71EF
:1012C000002A826822F4604216D094F8383042EA4C
:1012D000433273681A438260D8F80820BB6802F072
:1012E000010203F001031A43E2D1B36832681A43E2
:1012F00083688B431A430BE08260D8F80820BB68F0
:1013000002F0010203F001031A43D1D182688A433B
:101310008260CDE700010050000300502DE9F84F36
:1013200000270446009790F85800DFF8E0930D4638
:10133000B846012811D0012684F85860206803F0CF
:101340006FFD60B1E06D40F02000E0655FF00107E7
:1013500084F858803846BDE8F88F0220FBE7D5E9CD
:1013600000210C23206803EA91131844036B01F059
:101370001F014FF01F0C0CFA01FCC2F3846223EA38
:101380000C038A4013430363206803F049FD82463F
:10139000206803F03DFD5AEA00003CD1AA682968A4
:1013A0002068B2F1004F37D003F04AFD2068416950
:1013B00021F00041416120686969C268C2F3C1023D
:1013C000520091402A69042A31D000EB82002B6838
:1013D000026EDFF83CC303F0F84302EA0C020B4351
:1013E0001A4342F00041016620682A69A96900EBAE
:1013F0008200026E22F080720A430266297F226810
:101400002869012910D0002102EB8000026E22F031
:1014100000720A4302667DE0002203F011FD20689D
:10142000416941F00041C5E74FF00071ECE7002150
:1014300003F0E2FC400320684FF0000172D003F09B
:10144000DBFC90FAA0F0B0FA80F1286842036ED07D
:1014500090FAA0F0B0FA80F0814204D10022114647
:10146000206803F00BFD0121206803F0C5FC400358
:1014700020684FF001015DD003F0BEFC90FAA0F0AF
:10148000B0FA80F12868420359D090FAA0F0B0FA7F
:1014900080F0814204D100220121206803F0EEFC9B
:1014A0000221206803F0A8FC400320684FF00201ED
:1014B00048D003F0A1FC90FAA0F0B0FA80F12868BF
:1014C000420344D090FAA0F0B0FA80F0814204D1F7
:1014D00000220221206803F0D1FC0321206803F0E0
:1014E0008BFC400320684FF0030133D003F084FCF1
:1014F00090FAA0F0B0FA80F1286842032FD090FA59
:10150000A0F0B0FA80F0814204D1002203212068CB
:1015100003F0B4FC2068816811F0010F22D0ACE028
:1015200000E004E003F068FCC0F384618DE7C0F3E1
:10153000846091E703F060FCC0F38461A2E7C0F32C
:101540008460A6E703F058FCC0F38461B7E7C0F3FA
:101550008460BBE703F050FCC0F38461CCE7C0F3C8
:101560008460D0E72A7B296850F8B03FC1F3120CA1
:1015700023EA0C0302F0180C664A22FA0CF20A4025
:1015800013430360E968494577D1286841031CD0BB
:1015900090FAA0F1B1FA81F1491C01F01F0109296B
:1015A0004FEA403132D8002912D000BF90FAA0F1A2
:1015B000B1FA81F101F1010101F01F0106FA01F612
:1015C00009D100BFC0F3846109E0C0F38461E3E79F
:1015D000C0F38461EEE790FAA0F1B1FA81F101F174
:1015E000010101F01F0146EA816102D1C0F384606C
:1015F00003E090FAA0F0B0FA80F000F1010000F0F2
:101600001F0000EB400041EA005132E000290ED0FB
:1016100090FAA0F1B1FA81F101F1010101F01F018D
:1016200006FA01F606D100BFC0F3846106E0C0F3FC
:101630008461F1E790FAA0F1B1FA81F101F10101C1
:1016400001F01F0146EA816102D1C0F3846003E02A
:1016500090FAA0F0B0FA80F000F1010000F01F0055
:101660002D4A00EB400002EB005041EA000141F03E
:101670000071AA68206803F0E3FB28482A68024248
:101680003FF466AE26488168264B01F0E0719A422D
:1016900002D0254B9A421CD10B021AD42268B2F117
:1016A000A04F7FF455AE826841F4000122F0E07251
:1016B0000A4382601D481E490068B0FBF1F0401CDF
:1016C00000EB4000800000E0401E00900028FBD1AD
:1016D0003EE6184D184BAA4207D1CD0105D4226829
:1016E0009A42F5D041F0807109E0144DAA42EFD141
:1016F0004A02EDD422689A42EAD041F4800182681D
:1017000022F0E0720A43826022E6000000007F407F
:1017100000F0FF03FFFF0700000020FE000008802C
:1017200000030050000021C31000C09044000020BE
:10173000400D0300000052C700010050000084CBA0
:10174000704770470068006C704700002DE9F05F3B
:101750000446006806684568DFF854B2DBF8080004
:1017600000F01F07B0070ED5A8070CD5E06DC00626
:1017700003D4E06D40F40060E0652046FFF770F9A7
:10178000216802200860DFF82CA270074FF0A04803
:1017900001D5680703D4300737D5280735D5E06D64
:1017A000C00603D4E06D40F40070E065206803F0EB
:1017B0003FFB20B32068504501D1424600E002467D
:1017C000824208D03FB1052F05D0092F03D05045E4
:1017D00003D1414602E0C16801E00146C9688904BD
:1017E0000DD4016809070AD503F01AFB58B3E06D60
:1017F00040F01000E065206E40F0010020662046B9
:10180000FFF79EFF21680C200860B00601D5A806EE
:1018100003D4700658D5680656D5E06DC00603D4CB
:10182000E06D40F40050E0652068C16C11F4C07FA9
:101830001AD00021894603F0FBFA02462068504581
:1018400014D1434613E02068416821F00C01416047
:10185000E06D20F48070E065E06DC004CFD4E06DF1
:1018600040F00100E065CAE70121E3E70346834257
:1018700008D03FB1062F05D0072F03D0504503D124
:10188000414602E0C16801E00146C968B9F1000FB4
:1018900014D08B0102D58AB18A040FD40268520693
:1018A0000CD589020AD403F0B3FAE8B3E06D40F036
:1018B0001000E065206E40F0010020662046FFF732
:1018C0005DFB21686020086030060BD5280609D52D
:1018D000E06D40F48030E065204600F06BF921684F
:1018E00080200860F0050CD5E8050AD5E06D40F4CD
:1018F0000030E0652046FFF7A3FC21684FF48070BC
:101900000860B0050CD5A8050AD5E06D40F480202C
:10191000E0652046FFF795FC21684FF400700860F1
:10192000F0062ED5E80600E008E02AD5E06BD0B13D
:10193000AFB1DBF8080000F4604013E020684168B4
:1019400021F060014160E06D20F48050E065E06DC1
:10195000C005B3D4E06D40F00100E065AEE720685B
:10196000C068C00750B1E06D40F48060E065206E53
:1019700040F0020020662046FFF7E3FE21681020B9
:101980000860700512D5680510D5E06D40F4804000
:10199000E065206E40F00800206621684FF480600A
:1019A00008602046BDE8F05FFFF740BBBDE8F09F50
:1019B0000003005000010050F8B54FF0000504008E
:1019C0002E46009502D0E06D10B107E00120F8BD71
:1019D000204600F0F1F8266684F858602068816897
:1019E000C1F3407119B181686A4A11408160206871
:1019F0008168C1F3007189B98168674A114041F07B
:101A000080518160654866490068B0FBF1F0400094
:101A1000801C00E0401E00900028FBD120688168F7
:101A2000C1F3007141B9E16D41F01001E165216E32
:101A300041F001012166012503F0F2F9E16DC906CB
:101A400000D430B1E06D40F01000E065012528467B
:101A5000F8BDE06D20F4807040F00200E065206881
:101A6000806810F0010F11D14FF0A04080684D49FF
:101A700000F00100896801F00101084306D14A48DD
:101A80006168826822F47C120A438260E168E06B3C
:101A9000627F0843A16841EA4231084394F8241068
:101AA00040EA0140012904D1218D404A02EB414125
:101AB0000843E16A29B101F47871226B014342EADB
:101AC00001002168CA683A4B1A400243CA60206884
:101AD0000169626B21F0406111430161206803F0EC
:101AE0009FF90646206803F093F930432ED1207FFA
:101AF00094F83810800340EA41022068C16844F23B
:101B0000020399431143C1602069002820680169DC
:101B10000AD041F480310161206850F8C01F226969
:101B20006FF30D01114307E021F48031016120685A
:101B300050F8C01F6FF30D01016094F840000128B8
:101B40000CD02068016921F0010101616069012860
:101B50002068016B21F00F0111D013E0D4E91101CD
:101B60000843D4E913121143084321680A6940F27B
:101B7000FC739A43104340F001000861E6E7226AD3
:101B8000521E11430163E06D20F0020040F001009D
:101B9000E0655CE7C0FFFF5FC0FFFF7F44000020FF
:101BA000400D030000010050000300500000FEFF44
:101BB0000740F0FF70470000F0B587B004461421DD
:101BC0006846FEF709FC2F4B266800241A68032597
:101BD0002D49521C4FF09040B6F1A04F06D02B4F2C
:101BE000BE424CD11A60012A2AD031E01A60012A83
:101BF00007D1CA6C42F40052CA64CA6C02F40052A3
:101C00000592CA6C42F00102CA64CA6C02F0010279
:101C10000592CA6C42F00202CA64C96C029401F0D7
:101C2000020105910421CDE90015694600F050FF3D
:101C300041F20200CDE9000569460294144814E01F
:101C4000CA6C42F40052CA64CA6C02F40052059293
:101C5000CA6C42F00102CA64C96C029401F001012D
:101C600005914121CDE90015694600F031FF0022C0
:101C70001146122001F09CF8122001F08BF807B0F9
:101C8000F0BD0000280000200010024000010050BC
:101C9000000400482DE9F04104463B480F468168A6
:101CA00001F01F05A16908290FD085B1052D0ED0BF
:101CB000092D0CD0806800F4604060B1E06D40F008
:101CC0002000E0650120BDE8F081082604E02068DE
:101CD000C068C007F1E7042600F0E8FF804615E081
:101CE000781C13D000F0E2FFA0EB0800B84200D847
:101CF00067B920680068304208D1E06D40F0040008
:101D0000E065002084F858000320DCE720680068C4
:101D10003042E5D0E06D40F40070E065206803F0EB
:101D200087F880B1607F70B92068006800070AD525
:101D3000E06D20F48070E065E06DC00403D4E06DD8
:101D400040F00100E065114A20684FF0A041904248
:101D500001D10B4600E00346834210D07DB1052D32
:101D60000DD0092D0BD0904200D00146C968082E35
:101D700007D0490401D40C2101600020A3E7C16809
:101D8000F5E70821F8E700000003005000010050CB
:101D90002DE9F04104463848806800F01F052068AE
:101DA00003F03EF818B102210846BDE8F08194F82E
:101DB000580001280CD0012084F858002046FEF776
:101DC000F7FB01004FF0000304D084F85830EBE734
:101DD0000220EAE7E06D40F60162904340F4807033
:101DE000E065264A20684FF0A046904201D1374670
:101DF00000E00746874200D01DB9E76D27F4801741
:101E0000E765E76DFF0404D5276E27F00607276610
:101E100000E023661C27076084F858302068904251
:101E200001D1334600E00346834215D0A5B1052D0C
:101E300012D0092D10D0E36D43F48013E365904276
:101E400000D13046C0688001AED5E06D20F400506E
:101E500040F48050E065A7E7C268920105D5E26DC5
:101E600022F4005242F48052E2658268044B1A4028
:101E7000121D826098E7000000030050000100502E
:101E8000C0FFFF7F10B50F4A0168914202D14FF4A5
:101E900000110EE00B4A121D914202D14FF4800155
:101EA00007E0084A0832914201D1890601E04FF06B
:101EB0008041054A136831EA030302D1116000F042
:101EC000E9F810BD0002014014040140F8B5040017
:101ED0004FF000000546009003D0216809680029F2
:101EE00001DA012574E0617F21B920772062204664
:101EF00000F07CF821680868E66800F40002D4E984
:101F000001301843636933431843236918430B684E
:101F1000304E334003430B602068016809020DD541
:101F200062B92D492D4A0968B1FBF2F101EB81013B
:101F3000890000E0491E00910029FBD12849884210
:101F400002D14FF400110EE02549091D884202D14B
:101F50004FF4800107E022490831884201D181060F
:101F600001E04FF08041A3691E489E07A0F10402E2
:101F700028D0DE0600F104031E6801D50E4300E000
:101F80008E431E60237E9E06174B1E6801D50E43AE
:101F900000E08E431E60144B08331960237E9B07BC
:101FA000036801D50B4300E08B430360207EC0072C
:101FB00002D01068084301E0106888431060607F19
:101FC00020B105E003688B430360F5E701206077EB
:101FD0002846F8BD0F7E00FF44000020400D03009E
:101FE00000020140040401400C04014010B586B019
:101FF000044614216846FEF7EFF91049206888422C
:102000001AD10F48C16C41F00201C164C06C69462D
:1020100000F00200059002200090032001900020B3
:102020000290084800F054FD00221146402000F0C4
:10203000BFFE402000F0AEFE06B010BD0002014021
:10204000001002400004004808B501004FF00000F5
:10205000009003D00A681368002B01DA012008BD44
:102060004B7F012BFAD1136843F001031360022266
:102070004A770649064A0968B1FBF2F101EB810192
:1020800000E0491E00910029FBD108BD440000205A
:1020900080841E00704700002DE9F0470446407917
:1020A00090460D4601280BD04FF0010984F80590A9
:1020B00002202071A96808F01006042903D045E029
:1020C0000220BDE8F08700F0F1FD07465FEA080056
:1020D0004FF0030805D01CE000F0E8FDC01B01280C
:1020E0000FD82068406B0004F6D4012000F0B4FA49
:1020F0002168686A086416E000F0D8FDC01B01285A
:1021000007D9206940F00800206184F8048003208A
:10211000D7E72068406B0028EEDB012000F09CFA36
:102120002168686A48642068816C40F2FF32B240DE
:102130009143AA6AB240114381642068C16CFF22B6
:10214000B2409143EA6AB2401143C164E869012890
:1021500008D12268916B1F20B0408143286AB040AB
:10216000084390632068C06B0721B1408843A96988
:10217000012903D0022955D06969E9B300216B69AF
:10218000AA681A430A434FF4807101FA06F3984390
:102190002B79012B00D0002111434FF4007202FA79
:1021A00006F398436B79012B00D0002220F44047BE
:1021B000286842EA0108022836D00743216808FA55
:1021C00006F03843C863206801684FF48042B2408B
:1021D000914301602268116840F6FE70B04081436F
:1021E000E868B0400843106020680168C022B2402F
:1021F00091430160287B00E014E0297C2268C0F351
:10220000830001F03C0140EA8110116E40F60F732B
:10221000B3409943B0400143116684F80490002014
:1022200060714EE70121AAE701F08EF90549884265
:1022300002D947F40047C1E703498842BED947F4B1
:102240008047BBE70068890900B4C40470B5040086
:1022500003D02079002510B105E0012070BD657123
:10226000204600F007F8022020712561012020712E
:10227000002070BD10B586B0044614216846FEF7F4
:10228000ABF8174A2168174891421CD1C16C41F440
:102290008031C164C16C01F480310591C16C41F0A1
:1022A0000101C164C06C694600F001000590102076
:1022B000009003200190002002904FF0904000F029
:1022C00007FC06B010BD084A9142FAD1C16C41F436
:1022D0008021C164C06C00F480200590F1E700000B
:1022E00000080050001002400010005018B50068AF
:1022F000C46B0090104421B11430009003600020A2
:1023000018BD0830F9E72DE9F041044640790D4643
:10231000012822D04FF0010884F80580022626719A
:1023200021680A6805F0100708FA07F002430A60FE
:10233000404600F091F92068016885B101F47811F8
:10234000BE40B14203D1416841F00201416084F8CE
:10235000048000206071BDE8F0810220FBE7C1F33A
:1023600044010129F3D1416841F00101EEE710B5C4
:1023700090F8253000210122022B03D00421C163F3
:10238000012122E003681C6824F00E041C60836CA9
:102390001C6824F480741C6003681C6824F0010429
:1023A0001C6090F84430046C03F01F0302FA03F33E
:1023B0006360D0E913345C60436D33B11C6824F46E
:1023C00080741C60D0E916345C6080F825200022FF
:1023D00080F82420084610BD70B590F82520002410
:1023E00001212346022A07D00422C26380F8251067
:1023F00080F82430012429E00268156825F00E05D4
:1024000015600268156825F001051560826C156875
:1024100025F48075156090F84420056C02F01F02C9
:1024200001FA02F26A60D0E913255560426D32B1BB
:10243000156825F480751560D0E91625556080F87B
:10244000251080F82430816B01B18847204670BD8B
:10245000F0B4016C0C6801680D6890F8442002F03B
:102460001F06042202FA06F3234211D06B070FD590
:102470000B689B0603D40B6823F004030B6090F8F1
:10248000441001F01F018A40016C4A60016B1DE09D
:10249000022303FA06F727424FF0000C4FF0010227
:1024A00018D0AF0716D50C68A40605D40C6824F024
:1024B0000A040C6080F8252090F8441001F01F01F8
:1024C0008B40016C4B6080F824C0C16A00291AD08F
:1024D000F0BC08470823B340234214D02B0712D581
:1024E0000B6823F00E030B6090F84410036C01F0AE
:1024F0001F0102FA01F15960C26380F8252080F8BB
:1025000024C0416BE2E7F0BC7047000070B50400E6
:102510000CD02B4A21681420914209D2294A0A443E
:10252000B2FBF0F08000606427480AE0012070BD33
:10253000234A52420A44B2FBF0F080006064204813
:1025400008382064022084F825000A6847F6F070F5
:102550008243D4E902031843D4E904352B431843DA
:10256000A3691843E3691843236A184310430860BA
:102570002046FEF79DF9A0680025B0F5804F00D1F8
:102580006560A16C20790860D4E91301416060683E
:10259000401E032808D82046FEF7AAF9606D0560A2
:1025A000D4E91601416002E06565A565E565E5636E
:1025B000012084F8250084F82450002070BD00001C
:1025C00008040240F8FFFDBF0000024070B5044659
:1025D00090F82400002501280CD0012084F8240064
:1025E00094F825600020012E06D084F824000225EE
:1025F000284670BD022070BD022684F82560E06385
:102600002068066826F0010606602046FEF782F97B
:10261000206B00282068016802D041F00E0106E01E
:1026200021F0040101602068016841F00A010160A5
:10263000A06C0168C90303D5016841F48071016091
:10264000606D18B1016841F4807101602068016813
:1026500041F001010160CBE770B5044600F026FBB4
:102660000546601C02D004484068044400F01EFB8C
:10267000401BA042FAD370BD3800002030B590F85E
:102680005C30012B07D0022B05D0016E41F0020116
:102690000166012030BD0468A36D4D0701D0DD0740
:1026A0001DD011F0380F01D09D0718D511F4E07F2F
:1026B00001D05D0713D511F4F05F01D01D070ED5D1
:1026C00011F4604F01D0DD0609D511F4403F01D06F
:1026D0009D0604D511F47C0F05D05D0603D4E56D8D
:1026E00045F00105E5654C0701D0DC071DD111F06F
:1026F000380F01D09C0718D411F4E07F01D05C079B
:1027000013D411F4F05F01D01C070ED411F4604F04
:1027100001D0DC0609D411F4403F01D09C0604D45A
:1027200011F47C0F06D05B0604D50368DC6D44F021
:102730000204DC650B0604D5036853F8DC4F144330
:102740001C60CB0504D5036853F8E04F14431C60AC
:102750000068426D0A434265002030BD70B50446F2
:1027600090F85C00022803D0206E40F0080007E0DB
:102770002068D0F8C4309B0205D5206E40F400706C
:102780002066012070BDD0F8C400C0F301452B467F
:102790002046FEF731F921680120A840C1F8CC009D
:1027A000A065002070BD10B590F85C20012A07D00C
:1027B000022A05D0016E41F002010166012010BD20
:1027C0000A687AB10B7B0A690C7A42EA43734A6958
:1027D000406C496842EA847200EBC100C0E90032F3
:1027E000002010BD0B7A4A690C8A42EA83720B7B87
:1027F000006CDB06496843EA04431A4340F8212091
:10280000EEE7704770470000F0B590F85C40022C8E
:1028100003D0016E41F008014DE0046840293DD02D
:10282000D4F898502D0743D0D4F89840C4F301262B
:10283000D0F84C4006EBC60504EBC504256815F03E
:1028400080455560256839D025F0604515602568BC
:10285000284F05F00055956020CC05F00045156126
:1028600034F8045BADB2D56154F8045C05F470250E
:10287000D56054F8045C05F48015556154F8045C87
:1028800005F40015956154F8045CC5F306651562FE
:1028900054F8045CED0F5562002518E0D4F8905010
:1028A0002D0705D0D4F89040C4F30126846CC1E70D
:1028B000016E41F4807101660120F0BDC5F38A45C7
:1028C000C4E700BF14F805C003F805C06D1CD2F8BA
:1028D0000CC007EB1C4C9CF800C0AC45F2D800685B
:1028E000402903D0C0F89C600020F0BDC0F894607F
:1028F000FAE70000587D000870472DE9F0470446CC
:102900000068016D466D01F4E0510E40016D476DA8
:1029100001F007010F40016D426D01F0380102EA3C
:102920000108016D456D01F471010D40016D426DAD
:1029300001F4602102EA0109016D490607D5416DE4
:10294000490604D5402101652046FFF7D5FF2068E0
:10295000016DC9050DD5416DC9050AD5D0F8D8203E
:10296000D0F8E01011404FF480720265204600F06C
:102970008EF82EB1206806653146204600F089F8B1
:102980002FB1206807653946204600F066F8B8F197
:10299000000005D0216808654146204600F05EF839
:1029A0002068016D890508D5416D890505D54FF46D
:1029B00000710165204600F06DF82068016D090680
:1029C0000CD5416D090609D5D0F8D420D0F8DC101B
:1029D000114080220265204600F05AF82068016DFF
:1029E000890408D5416D890405D54FF4005101656E
:1029F000204600F04BF82068016D090408D5416DB0
:102A0000090405D54FF400410165204600F03DF86A
:102A10002068016D490409D5416D490406D54FF47C
:102A200080410165206E40F080002066B9F1000011
:102A300005D02168086549462046FFF7E3FE25B129
:102A400020680565206E28432066206E002802D08D
:102A50002046FFF7D6FEBDE8F0877047704790F834
:102A60005C10012905D0016E41F0040101660120CE
:102A70007047022180F85C1001688A6922F0010227
:102A80008A610021016608467047704770477047A9
:102A900070477047704710B5B0F5005F0AD102F07B
:102AA000F9FC18B1BDE8104002F052BDBDE810407D
:102AB00002F048BD10BD0000044910B50A6802428A
:102AC00002D00860FFF7E7FF10BD000014040140CA
:102AD0002DE9FC4FDFF8A0A1002301250AF1040B2A
:102AE00003244FF00F0C0BF1040EBDE005FA03F6C2
:102AF00032406FD04F68012F05D0022F03D0112F25
:102B000001D0122F17D1D0F808905F0004FA07F80F
:102B100029EA08090097D1F80C8008FA07F848EA72
:102B20000908C0F808804768B7430E79C6F3001655
:102B30009E403E434660C6684FEA430804FA08F7E1
:102B4000BE4301978F6807FA08F73743C7604E689E
:102B5000022E01D0122E13D1DE0800EB860600965D
:102B6000366A5F07FF0E0CFA07F926EA0906D1F864
:102B7000109009FA07F949EA0609009EC6F8209064
:102B80000668019FBE430F7907F0030707FA08F7AD
:102B9000374307604E68F60065D5384E376E47F00C
:102BA00001073766366E23F0030706F0010600962C
:102BB000334E3E44B146B6689F074FEA17780CFA89
:102BC00008F7BE43B0F1904F05D02E4FB84204D164
:102BD000012717E047E0002714E02B4FB84201D14E
:102BE00002270FE0294FB84201D103270AE0284FFE
:102BF000B84201D1042705E0264FB84201D105278C
:102C000000E0062707FA08F73743C9F80870DAF832
:102C100000605746D1F8048096435FEAC83800D573
:102C200016433E60DBF800605F46D1F804809643AF
:102C30005FEA883800D516433E60DEF800607746CC
:102C4000D1F8048096435FEAC82800D516433E6059
:102C5000094F0C373E68D1F8048096435FEA882814
:102C600000D516433E605B1C0A6832FA03F67FF417
:102C70003DAFBDE8FC8F00000004014000100240A1
:102C8000000001400004004800080048000C004813
:102C900000100048001400480069084000D00120DE
:102CA00070470AB18161704781627047014880684E
:102CB00070470000380000200248816842681144D3
:102CC000816070473800002010B50024032000F018
:102CD0008FF80F2000F008F808B1012401E000F09F
:102CE00041F8204610BD000010B50446194888B0D0
:102CF000816D41F010018165806D06A900F0100022
:102D00000590684600F000FC00F024FC039901B136
:102D100040001149114AB0FBF1F11148491E02600F
:102D200040F2E732C26000220261C0E90112826112
:102D300001F07DF810B1012008B010BD002221463D
:102D4000362000F035F8362000F024F8044801F071
:102D500033F9F1E70010024040420F00001000403C
:102D60003C0600200A4882B0016E41F00101016674
:102D7000016E01F001010091816D41F0805181658A
:102D8000806D00F08050009002B000F083B9000028
:102D900000100240002809DB00F01F0201219140D1
:102DA0004009800000F1E020C0F8001170470000E9
:102DB000F0B40E4B1B680C46C3F30223C3F10705A6
:102DC000042D00D90425191D072901D2002300E094
:102DD000DB1E012606FA05F1491E214099409E405E
:102DE000761E16403143F0BC04F079B80CED00E0DB
:102DF000064900F0070208684FF6FF03184040EA52
:102E00000220034A10430860704700000CED00E008
:102E10000000FA05F8B504004FF0000514D094F84E
:102E20003A00052810D094F83A0002280CD0344813
:102E3000016E41F001010166006E00F0010000909A
:102E400094F83A0010B104E00120F8BD002084F8A5
:102E50003900204600F058F8A0682A4A4FF48071E3
:102E6000402836D0602834D020680368E66A23F012
:102E7000100333430360D4E901031843D4E9033654
:102E800033431843237D012B00D000210843616A9E
:102E90000843A16A0843218E40EAC14094F83410E7
:102EA00040EA01612068036813401943016020680B
:102EB0008169002909DBD4E906121143226A83697A
:102EC00023F03F031A431143816194F83A0090B113
:102ED00014E020680368E66A23F0100333430360BC
:102EE000D4E901031843267D2369012E00D0002177
:102EF0000B431843CBE7012084F83A002846F8BD7D
:102F000000100240113E00E030B587B004461421A5
:102F10006846FDF761FA2468214D00222149032308
:102F20004FF09040AC4211D1CC6C44F00104CC6421
:102F3000CC6C04F0010405940C6E44F001040C66A2
:102F4000096E01F0010105910E210CE0144D2D1DBB
:102F5000AC4211D1CC6C44F00104CC64C96C01F0DA
:102F600001010591E021CDE9001302924FEA0D0124
:102F7000FFF7AEFD07B030BD094808308442F9D1F3
:102F8000C86C40F00200C864C86C694600F00200DA
:102F900005900720CDE9000302920348E8E700000E
:102FA000000301400010024000040048002138B135
:102FB00090F83A20052A03D090F83A20012A02D04E
:102FC0000121084670470268136843F0010313604B
:102FD000042280F83A20F4E72B492C4B0A6832216E
:102FE0004A432B4940B1B0F5007F086829D020F44E
:102FF000C06040F480602CE00868C0F341200228E3
:1030000004D051F8800F20F4807022E0D1F88000C5
:1030100020F48070C1F88000086820F4C06040F49B
:1030200000700860B2FBF3F0401C00E0401E4A69EB
:10303000520501D50028F9D1486940050AD5032079
:103040007047C0F34120022806D051F8800F40F4A9
:103050008070086000207047D1F8800040F48070D4
:10306000C1F88000086820F4C06040F40070086077
:10307000B2FBF3F0401C00E0401E4A695205DBD56C
:103080000028F9D1D8E700004400002040420F009A
:10309000007000400248816841F4804181607047BF
:1030A000007000402DE9F8430446006800269D4D5D
:1030B00000035ED5A86D0027C00008D4A86D40F0BD
:1030C0008050A865A86D012700F080500090DFF8BF
:1030D0005892D9F8001041F48071C9F80010FFF738
:1030E000E5FD804606E000BFFFF7E0FDA0EB08002D
:1030F00002282BD8D9F80000C005F5D5D5F89000E6
:1031000010F4407014D0216C814211D0D5F8900099
:10311000D5F8901020F4407041F48031C5F890103B
:10312000D5F8901021F48031C5F89010C5F89000C2
:10313000C00711D0FFF7BAFD804641F2883907E099
:10314000FFF7B4FDA0EB0801494501D903260BE0C8
:10315000D5F890008007F3D5D5F89000216C20F4C5
:1031600040700843C5F890001FB1A86D20F0805052
:10317000A8652078C00707D0D5F88800616820F0DE
:1031800003000843C5F888002078800707D5D5F8E4
:103190008800A16820F00C000843C5F8880020785A
:1031A000400707D5D5F88800E16820F030000843D3
:1031B000C5F888002078000707D5D5F88800216970
:1031C00020F0C0000843C5F888002078800607D5A5
:1031D000D5F88800616920F440600843C5F888008C
:1031E0002078400607D5D5F88800A16920F4405022
:1031F0000843C5F888002078000607D5D5F8880070
:10320000E16920F440400843C5F888002088C005E3
:1032100007D5D5F88800216A20F440300843C5F866
:1032200088002088800507D5D5F88800616A20F4D9
:1032300040200843C5F88800208840050FD5D5F800
:103240008800A16A20F440100843C5F88800A06AED
:10325000B0F5801F03D1E86840F48010E860208852
:1032600000050FD5D5F88800E16A20F44000084336
:10327000C5F88800E06AB0F5800F03D1E86840F433
:103280008010E8602088C0040FD5D5F88800216B35
:1032900020F040700843C5F88800206BB0F1807FB3
:1032A00003D1E86840F48010E86020884FF00061A6
:1032B00080040ED5D5F88800626B20F04060104382
:1032C000C5F88800606B884203D1E86840F480103C
:1032D000E860208840040ED5D5F88800A26B20F065
:1032E00040601043C5F88800A06B884203D1E868AD
:1032F00040F48010E860208800040FD5D5F88800DD
:10330000E16B20F040500843C5F88800E06BB0F155
:10331000805F03D1E86840F48030E8603046BDE863
:10332000F883000000100240007000402DE9F047D3
:103330000E4605004FF0000725D0DFF8AC81D8F825
:10334000000000F00F00B0420CD2D8F8001021F0BD
:103350000F013143C8F80010D8F8000000F00F004A
:10336000B04210D12968614CC80741F2883A5AD05E
:103370006868DFF87C91032808D0022820682DD0E7
:10338000400500282CDB0120BDE8F0872068800183
:10339000F9D5E06800F00302E068C0F30310401CB8
:1033A000032A19D0534A00BFB2FBF0F0E268C2F31F
:1033B00006225043E268C2F34162521C5200B0FB45
:1033C000F2F0484517D9A06810F0F00F0CD088072C
:1033D00011D5A86840B10EE0474AE5E78003D0E781
:1033E00000F0DCF8484506D9A06820F0F00040F075
:1033F0008000A0608027A068696820F0030008436F
:10340000A060FFF753FC814606E000BFFFF74EFCCB
:10341000A0EB090151453AD8A068696800F00C009A
:10342000B0EB810FF2D12868810714D5400703D58E
:10343000A06840F4E060A0602878000705D5A06887
:1034400020F4605040F4E060A060A068A96820F01B
:10345000F000084304E0802F03D1A06820F0F000C2
:10346000A060D8F80010404601F00F01B14216D913
:10347000016821F00F0131430160FFF717FC074697
:1034800007E000BFFFF712FCC11B514501D9032023
:103490007AE7D8F8000000F00F00B042F2D12878A7
:1034A000400705D5A068E96820F4E0600843A06003
:1034B0002878000706D5A068296920F4605040EA02
:1034C000C100A06000F06AF8A1680C4AC1F30311C2
:1034D000515C01F01F01C8400949086009480068B3
:1034E000BDE8F047FFF700BC00200240001002409A
:1034F00000B4C4040024F40000366E01907D00087E
:1035000044000020380000200F2202600C4A93681B
:1035100003F003034360936803F0F0038360936850
:1035200003F4E063C36092684FF4E06303EAD202FD
:1035300002610448006800F00F0008607047000056
:10354000001002400020024001480068704700005F
:10355000440000200548064900688968054AC1F30F
:103560000221515C01F01F01C84070474400002057
:1035700000100240A07D00080548064900688968DF
:10358000054AC1F3C221515C01F01F01C8407047D8
:103590004400002000100240A07D0008184910B52A
:1035A0008868C0F381021748012A0BD08A68164B3D
:1035B000C2F38102022A06D08A68C2F38102032A7A
:1035C00003D0002010BD184610BDCA6802F00304E5
:1035D000CA68C2F30312521C032C02D0B0FBF2F0F3
:1035E00001E0B3FBF2F0CA68C968C2F30622504397
:1035F000C1F34161491C4900B0FBF1F010BD00006E
:10360000001002400024F40000366E012DE9F8435A
:1036100004007AD02078FA4DC00747D0A868E9683E
:1036200000F00C0001F003010C2802D0082817D08C
:1036300001E0032914D06068B0F5803F17D0B0F5E1
:10364000A02F286817D020F480302860286820F444
:10365000802028606068E0B1FFF728FB064614E090
:103660002868800322D560680028D2D01EE0286830
:1036700040F48030EDE740F480202860F7E700BF99
:10368000FFF714FB801B642870D828688003F7D5E7
:103690000CE0FFF70BFB064605E000BFFFF706FB5B
:1036A000801B6428F0D828688003F7D4207880072E
:1036B0004CD5A868E96800F00C0001F003010C2863
:1036C00002D004280DD001E002290AD0E0680028C9
:1036D00028682BD040F480702860FFF7E7FA064690
:1036E00019E02868400502D5E068002891D0686894
:1036F000217C20F0FE4040EA01606860C14800681B
:10370000FFF7F2FA002800D120E076E1FFF7CEFAC9
:10371000801B0228B8D828684005F7D56868217C46
:1037200020F0FE4040EA016068600FE020F4807005
:103730002860FFF7BBFA064605E000BFFFF7B6FAC0
:10374000801B0228A0D828684005F7D420780007FD
:1037500029D560690028D5F8940013D040F0010005
:10376000C5F89400FFF7A2FA064606E090E000BF15
:10377000FFF79CFA801B022886D8D5F894008007B2
:10378000F6D510E020F00100C5F89400FFF78EFA9E
:10379000064604E0FFF78AFA801B022878D8D5F89D
:1037A00094008007F6D42078400761D5A86D0026E4
:1037B000C00008D4A86D40F08050A865A86D01260F
:1037C00000F08050009090480168C90511D401684C
:1037D000804641F480710160FFF768FA074604E013
:1037E000FFF764FAC01B022852D8D8F80000C005C1
:1037F000F6D5A068012815D00528D5F8900016D078
:1038000020F00100C5F89000D5F8900020F00400E9
:10381000C5F89000A06841F28838B8B1FFF746FAC1
:1038200007460EE0D5F8900040F00100F0E740F0C8
:103830000400C5F89000F5E7FFF738FAC11B4145D1
:1038400026D8D5F890008007F6D50CE0FFF72EFAC1
:10385000074604E0FFF72AFAC11B414518D8D5F8FE
:1038600090008007F6D41EB1A86D20F08050A865A6
:103870002078800629D5A0690028D5F8980013D0B3
:1038800040F00100C5F89800FFF710FA064606E080
:1038900077E000BFFFF70AFA801B022877D8D5F837
:1038A00098008007F6D510E020F00100C5F89800D8
:1038B000FFF7FCF9064604E0FFF7F8F9801B022841
:1038C00065D8D5F898008007F6D4E069F0B3A96808
:1038D000C1F38101032961D00228286820F080709B
:1038E00028600BD0E86820F00300E860E8684749EA
:1038F0000840E860FFF7DAF904464BE0FFF7D6F935
:10390000064604E0FFF7D2F9801B02283FD828685A
:103910008001F7D4F4E908016FF00F0202EB011106
:103920000843218A5204490802EB4151A26841EA46
:1039300002210843217D4FF07E42490802EB41619C
:103940000843217B40EAC160E96800E062E0304A58
:1039500011400843E860286840F080702860E868FB
:1039600040F08070E860FFF7A1F9044605E000BF71
:10397000FFF79CF9001B022809D828688001F7D5B9
:1039800048E004E0FFF792F9001B022802D9032067
:10399000BDE8F88328688001F4D43BE00128F7D023
:1039A000E868226A00F00301914226D1616A00F0C2
:1039B000F0020901103991421FD1A26A00F4FE41C0
:1039C000B1EB022F19D194F82C2000F07841B1EB23
:1039D000C26F12D1218E00F4C00249084905A1F539
:1039E0000011914209D194F8341000F0C0604908E8
:1039F0004906A1F1007181420CD00120C8E7000006
:103A0000001002403800002000700040FFFFEEFE72
:103A10000C809F010020BBE7704770477047000093
:103A2000F0B590F83C20012A4AD0012280F83C20D1
:103A3000CA688B6822F440721A434B6822F4806291
:103A40001A430B6822F400621A430B6922F4805275
:103A50001A434B6922F400521A430B6B22F4804242
:103A60001A430B8B22F4702242EA0342154C03687E
:103A70000026154DA34201D0AB4203D1CF6922F0FD
:103A800080523A43A34201D0AB4214D10F8D22F4AD
:103A9000700242EA07520F6A22F080723A434F6A7C
:103AA00022F000723A43A34201D0AB4203D1C96A6B
:103AB00022F000520A435A6480F83C600020F0BDB6
:103AC0000220F0BD002C014000340140F0B590F818
:103AD0003C30012B0BD0012380F83C301368042BC1
:103AE0001ED006DC012B11D0022B06D113E00220E0
:103AF000F0BD082B19D0102B1CD0002423462646DD
:103B0000254601291BD002293AD129E001240026AB
:103B100063020925F5E70224012663020A25F0E77E
:103B20000424022663020B25EBE708240326630224
:103B30000C25E6E71024042663020D25E1E7D0F802
:103B400000C0DCF8607051689268B140A743214022
:103B50003943AA4099431A400A43CCF860200FE049
:103B6000D0F800C0DCF8647051689268B140A74397
:103B700021403943AA4099431A400A43CCF86420B3
:103B8000002180F83C100846F0BD704770470000E7
:103B900070B588B00E46040004D094F83D000025AE
:103BA00018B107E0012008B070BD84F83C502046F1
:103BB00000F05CF8022084F83D00211D206802F02E
:103BC00001FAB36831680322206802F029FC2068FA
:103BD000816921F00C01816120688169726811435B
:103BE00081612068416841F08001416020688168FE
:103BF0001B4A114081602068816841F0400181606A
:103C000020688168174A114081602068816841F00E
:103C10000401816070200595049506950395029531
:103C20000090F06801906946206802F09FFA2068D1
:103C300041680D4A114041602068416841F05001DF
:103C40004160012084F8480084F83E0084F83F0079
:103C500084F8440084F8450084F83D000020A2E781
:103C60008FFFCFFFF8FFFEFF8FFFFFFD704770470C
:103C7000F0B590F83C20012A3AD0012580F83C505C
:103C8000022280F83D2003685A689C68194E1A4F3A
:103C9000B34201D0BB4204D122F4700C4A6842EA1C
:103CA0000C02DFF858C002EA0C02D1F800C04CEA5E
:103CB000020CC3F804C00268B2420DD0B2F1804FCA
:103CC0000AD00F4B9A4207D00E4B9A4204D0BA4208
:103CD00002D00D4B9A4204D1896824F08003194325
:103CE000916080F83D50002180F83C100846F0BDFE
:103CF0000220F0BD002C0140003401408FFFFFFD89
:103D000000040040000800400040014010B5044697
:103D1000022249B104290ED0082913D094F8470093
:103D2000012816D0012010BD94F844000128F9D1D3
:103D300084F844200FE094F845000128F2D184F87B
:103D4000452008E094F846000128EBD184F846208D
:103D500001E084F847200422206802F098F92068E6
:103D6000416C41F4004141641049206888420ED002
:103D7000B0F1804F0BD00E49884208D00D498842DF
:103D800005D00D49884202D00C49884207D181688C
:103D90000B4A1140062906D0B1F5803F03D00168D7
:103DA00041F001010160002010BD0000002C014025
:103DB0000004004000080040003401400040014081
:103DC0000700010070B504460D460068002202F0AD
:103DD0005EF92068036A41F211110B4244F2444239
:103DE00006D1036A134203D1436C23F400434364B6
:103DF0002068036A0B4206D1016A114203D10168AF
:103E000021F00101016001203DB1042D08D0082DF1
:103E100009D084F84700002070BD84F84400FAE718
:103E200084F84500F7E784F84600F4E7704710B5DA
:103E3000040003D094F83D0010B107E0012010BD4C
:103E4000002084F83C00204600F022F8022084F88C
:103E50003D00211D206802F0B5F8012084F84800DB
:103E600084F83E0084F83F0084F8400084F8410064
:103E700084F8420084F8430084F8440084F8450044
:103E800084F8460084F8470084F83D00002010BD07
:103E900010B586B0044614216846FCF79DFA274AFF
:103EA0002168274891421ED1016E41F400610166EC
:103EB000006E002200F40060059001211820FEF73A
:103EC00077FF1820FEF766FF002201211920FEF778
:103ED0006FFF1920FEF75EFF002211461B20FEF740
:103EE00067FF1B2025E0174A914224D1816D41F0E4
:103EF00004018165816D01F004010591C16C41F0FF
:103F00000201C164C06C002100F0020005904FF472
:103F1000E07000900220CDE90101CDE9031069466F
:103F20000948FEF7D5FD002201211E20FEF740FFC3
:103F30001E20FEF72FFF06B010BD0000002C014030
:103F400000100240000800400004004890F83D10B6
:103F5000012901D001207047022180F83D1000683E
:103F60000F4988420ED0B0F1804F0BD00D498842E6
:103F700008D00D49884205D00C49884202D00C492E
:103F8000884207D181680B4A1140062906D0B1F555
:103F9000803F03D0016841F00101016000207047BB
:103FA000002C0140000400400008004000340140A3
:103FB000004001400700010090F83D10012901D0A8
:103FC00001207047022180F83D100168CA6842F064
:103FD0000102CA600068104988420ED0B0F1804FDB
:103FE0000BD00E49884208D00D49884205D00D49B2
:103FF000884202D00C49884207D181680B4A11409F
:10400000062906D0B1F5803F03D0016841F00101D7
:104010000160002070470000002C014000040040B7
:10402000000800400034014000400140070001004A
:1040300070B5044690F83C00012814D0012584F89E
:104040003C50022084F83D0022689068344B1840B0
:1040500020F47F4090600868702827D010DC10F0B2
:104060000F0F03D04AE04FF0020070BD4FEA20125C
:10407000072A43D2DFE802F050505050483139004F
:10408000284BC21A984247D009DCB0F5805F35D082
:10409000B0F5005F15D0B0F1101F2FD13CE0102A11
:1040A0003AD0202A38D0502A28D135E0CB68D1E93F
:1040B0000121206801F0F8FF2068816841F0770154
:1040C00009E0CB68D1E90121206801F0EDFF20680B
:1040D000816841F48041816010E0CA6849682068C5
:1040E00002F08CF95021206806E0CA68496820680F
:1040F00002F0CCF96021206801F0E0FF84F83D5027
:10410000002084F83C0070BDCA684968206802F04D
:1041100075F940212068EFE7226801461046EBE779
:1041200088FFCEFF2000100070B53A4A2DED028BBB
:10413000016891426AD1002100F072FB00EE100A82
:10414000DFED350A9FED388AB8EE400A354C374D21
:104150004FF4807180EE201ADFED300A284680EEA1
:10416000810ADFED2F0A80EE201AF3EE0E0A20EE10
:10417000200AC0EE080A84ED021AC4ED030AFEF715
:104180008BFD207080212846FEF786FD217841EACC
:104190004000207040212846FEF77EFD217841EA4C
:1041A0008000C0B2207005280CD004280DD006284D
:1041B0000ED002280FD0032810D0012811D094ED82
:1041C000010A12E09FED1A0A0DE09FED1A0A0AE0BB
:1041D0009FED190A07E09FED190A04E09FED180A08
:1041E00001E09FED180A84ED010AB5EEC00AF1EE78
:1041F00010FA02D230EE080A06E010EE100A124958
:10420000884203DD30EE480A84ED010ABDEC028BE2
:1042100070BD0000000800400050434A920A863FEB
:1042200000401C4600000020DB0FC940000400488D
:104230000BBE7540AA619C404EE4BD40F366DF4072
:10424000CC7400411E361141DB0FC94070B50446E5
:10425000006801694FF00005C943890715D4C1689A
:10426000C943890711D4E91E016101202077206824
:1042700080698007204602D0FFF756FF04E000F077
:104280002DF9204600F0ECF9257720680169C94333
:10429000490717D4C168C943490713D46FF0040113
:1042A0000161022020772068806910F4407F204659
:1042B00002D0FFF739FF04E000F010F9204600F0CB
:1042C000CFF9257720680169C943090716D4C16869
:1042D000C943090712D46FF0080101610420207757
:1042E0002068C0698007204602D0FFF71DFF04E068
:1042F00000F0F4F8204600F0B3F925772068016952
:10430000C943C90617D4C168C943C90613D46FF09D
:1043100010010161082020772068C06910F4407FF7
:10432000204602D0FFF700FF04E000F0D7F8204657
:1043300000F096F9257720680169C943C90708D1BB
:10434000C168C943C90704D1891E0161204600F034
:104350005DFA20680169C943090609D4C168C943E7
:10436000090605D46FF0800101612046FFF755FB77
:1043700020680169C943C90509D4C168C943090650
:1043800005D46FF4807101612046FFF745FB20687A
:104390000169C943490609D4C168C943490605D41E
:1043A0006FF040010161204600F04FFA206801697A
:1043B000C943890609D4C168C943890605D46FF089
:1043C000200101612046FFF729FB20680169C943EC
:1043D000C90209D4C168C943C90205D46FF4801168
:1043E00001612046FFF7D2FB20680169C9438902B9
:1043F00009D4C168C943890205D46FF40011016171
:104400002046FFF7C2FB20680169C943490209D46D
:10441000C168C943490205D46FF480010161204697
:10442000FFF725FC20680169C94309020BD4C16864
:10443000C943090207D46FF4000101612046BDE8B9
:104440007040FFF7F3BC70BDF0B587B0044614218F
:104450006846FBF7C1FF1E492068884236D11D48D7
:10446000C16C41F00201C164C16C01F0020105910F
:10447000C16C41F00101C164C06C022500F0010073
:1044800005904FF4C04000900024CDE90154062669
:10449000114FCDE9034669463846FEF719FBA803DC
:1044A0000090CDE901540420CDE903406946384627
:1044B000FEF70EFB4FF4E0600090CDE90154CDE92A
:1044C000034669464FF09040FEF702FB07B0F0BD8F
:1044D000002C01400010024000040048704770B5F5
:1044E000044690F83C000D4601280BD0012084F8CA
:1044F0003C000C2A45D007DC5AB1042A1BD0082AFC
:1045000078D12CE0022070BD102A4ED0142A71D12F
:104510005DE0206801F0DCFD2068816941F0080160
:1045200081612068816921F00401816120688169CD
:104530002A69114311E0206801F018FE20688169A2
:1045400041F4006181612068816921F480618161A9
:10455000206881692A6941EA022181614AE0206874
:1045600001F04CFE2068C16941F00801C16120687A
:10457000C16921F00401C1612068C1692A69114340
:1045800011E0206801F082FE2068C16941F40061F9
:10459000C1612068C16921F48061C1612068C1697D
:1045A0002A6941EA0221C16124E0206801F0B6FED7
:1045B0002068016D41F0080101652068016D21F05E
:1045C000040101652068016D2A69114311E020682A
:1045D00001F0DCFE2068016D41F400610165206896
:1045E000016D21F4806101652068016D2A6941EA4D
:1045F00002210165002084F83C0070BD10B5040064
:1046000003D094F83D0010B107E0012010BD002058
:1046100084F83C00204600F022F8022084F83D0097
:10462000211D206801F0CEFC012084F8480084F8A8
:104630003E0084F83F0084F8400084F8410084F88C
:10464000420084F8430084F8440084F8450084F86C
:10465000460084F8470084F83D00002010BD7047F4
:104660007047000030B50446022269B1042912D017
:10467000082917D00C291CD0102921D094F8430008
:10468000012824D0012030BD94F83E000128F9D142
:1046900084F83E201DE094F83F000128F2D184F810
:1046A0003F2016E094F840000128EBD184F8402028
:1046B0000FE094F841000128E4D184F8412008E09B
:1046C00094F842000128DDD184F8422001E084F80A
:1046D00043200122206801F0CDFC194B20681949C4
:1046E000194A984209D0884207D0904205D0174D08
:1046F000A84202D0164DA84203D1456C45F40045AE
:104700004564206898420CD0B0F1804F09D0114B1D
:10471000984206D0104B984203D0884201D0904274
:1047200007D181680D4A1140062906D0B1F5803FB6
:1047300003D0016841F001010160002030BD00009C
:10474000002C014000340140004001400044014081
:10475000004801400004004000080040070001003C
:1047600030B504460D460068002201F083FC224B60
:1047700041F2111120688A0098420BD01F4B9842D9
:1047800008D01F4B984205D01E4B984202D01E4BBA
:10479000984209D1036A0B4206D1036A134203D13E
:1047A000436C23F4004343642068036A0B4206D140
:1047B000016A114203D1016821F001010160012069
:1047C0005DB1042D0CD0082D0DD00C2D0ED0102D68
:1047D0000FD084F84300002030BD84F83E00FAE793
:1047E00084F83F00F7E784F84000F4E784F84100DC
:1047F000F1E784F84200EEE7002C0140003401406C
:104800000040014000440140004801400068034965
:10481000884201D1FEF750BA7047000000100040F6
:104820000246002041B1042909D008290AD00C29E8
:1048300001D11068006C70471068406B70471068B9
:10484000806B70471068C06B7047704790F880109D
:10485000012918D0012180F880102421C0F884108B
:1048600050F8641B0A680B6823F001030B6022F008
:1048700000510022026050F8643C1960202101625E
:10488000027710467047022070477047704770B536
:10489000044690F8800001281DD0012084F8800093
:1048A0002420C4F8840020680568026822F0010210
:1048B00002602068826822F060620A4382602046BB
:1048C00001F0F6FD206805602020C4F88400002077
:1048D00084F8800070BD022070BD70B5044690F869
:1048E000800001281DD0012084F880002420C4F815
:1048F000840020680568026822F0010202602068D6
:10490000826822F060420A438260204601F0D0FDB6
:10491000206805602020C4F88400002084F880000E
:1049200070BD022070BD7047704770472DE9F0419F
:1049300003680446D86919689A6840F60F0528424A
:104940004FF0000509D186067ED501F0200602F061
:1049500080573E4378D0216FFFE0924E924F164031
:104960000F40374370D0C70709D0CF0507D50127BF
:104970001F62D4F88C3043F00103C4F88C308307F5
:104980000AD5D30708D0276802233B62D4F88C30BD
:1049900043F00403C4F88C3043070AD5D30708D08A
:1049A000276804233B62D4F88C3043F00203C4F838
:1049B0008C3003070CD501F02003334308D0266860
:1049C00008233362D4F88C3043F00803C4F88C30E9
:1049D00003050BD54B0109D526684FF400633362FC
:1049E000D4F88C3043F02003C4F88C30D4F88C30E9
:1049F000002B34D0800609D501F0200002F0805150
:104A0000084303D0216F09B120468847D4F88C00B1
:104A100021688968490602D410F0280F21D0204669
:104A200001F04CFE20688168490615D5816821F0A7
:104A300040018160E06F78B15C498163E06FFDF710
:104A4000CBFC00280BD000E011E0E06F816B00E0B0
:104A50002046BDE8F04108472046FFF766FFBDE865
:104A6000F0812046FFF761FFC4F88C50F7E7E76E4E
:104A70002026012F5CD1C7065AD5CF0658D5102065
:104A800018622068816849062FD5E26F116849686D
:104A90000904090CE3D0B4F85C308B42DFD9A4F8E8
:104AA0005E1011680968890618D4016821F48071C4
:104AB00001602068816821F00101816020688168BF
:104AC00021F040018160C4F88860E56620680168D3
:104AD00021F010010160E06FFDF749FCB4F85C00C3
:104AE000B4F85E10401A81B21EE0B4F85C10B4F85D
:104AF0005E20891AB4F85E2089B2002AAFD000295E
:104B0000ADD0026822F49072026020688268254B62
:104B1000DB431A408260C4F88860E5662567206838
:104B2000026822F0100202602046FFF7AEFE96E710
:104B3000C70209D5570207D54FF4801018622046E6
:104B4000BDE8F041FFF7F0BE07060AD501F0800787
:104B500002F40002174304D0616F00297FF478AF9C
:104B60007DE742060CD54A060AD51968204621F091
:104B700040011960C4F88460656700F03BF96EE796
:104B8000020206D54A0004D52046BDE8F041FFF7F1
:104B9000CABEC001CBD50029C9DA2046BDE8F04124
:104BA000FFF774BE01000010200100041D6600081C
:104BB00010B5040003D0D4F8840010B107E0012040
:104BC00010BD002084F88000204600F027F8242043
:104BD000C4F884002068016821F0010101602046CA
:104BE00001F052FF0128EBD0A06A10B1204601F07D
:104BF00081FC2068416821F490414160206881680F
:104C000021F02A0181602068016841F00101016002
:104C10002046BDE8104001F0D1BC000070B586B060
:104C2000064614216846FBF7D7FB214930688842C5
:104C30003CD12049886D40F480208865886D00F45F
:104C400080200590C86C40F00200C864C86C002544
:104C500000F0020005904FF4406000900220CDE982
:104C600001050720CDE9035069461348FDF730FFE1
:104C7000134C124820601D2060601020C4E902051A
:104C80008020C4E90405A561E56120462562FDF7A1
:104C90003DFC08B1FBF76DFEB4670022022127201E
:104CA000A662FEF785F82720FEF774F806B070BDFF
:104CB0000048004000100240000400480800024084
:104CC0009004002010B4D0F88830202B1BD1B9B14B
:104CD000B2B190F88030012B15D0012380F88030DC
:104CE0000023C366094C0368A34206D05C68240213
:104CF00003D51C6844F080641C6010BC01F0FEBF4A
:104D0000012010BC70470220FBE70000008000403B
:104D100010B5044600680E49884218D10D4A117832
:104D2000FF2907D3002010704FF480710A48FBF769
:104D300053FB04E0084B50785854491C1170054946
:104D400020460122BDE81040491CFFF7BBBF10BD43
:104D500000480040340000203C05002070B50446A7
:104D6000D0F8840020283DD171B36AB394F8800054
:104D7000012837D0012084F880002165A4F8542050
:104D8000A4F856200025C4F88C502120C4F88400D3
:104D9000A06FD8B11449C162A16F144813460863CB
:104DA000A16F13484863A06F85632668216D06F1E3
:104DB0002802A06FFDF70AFC40B11020C4F88C0057
:104DC00004F8805F20206060012070BD21684020D1
:104DD000086284F880502068816841F08001816019
:104DE000002070BD022070BD81660008B166000819
:104DF000316600087047704700EB8100006E00F0DC
:104E0000F840704700EB8100006E00F0F8407047FA
:104E10008068C0F3C00070478068C0F3C00070476E
:104E20008068C0F3800070478068C0F380007047DE
:104E3000C06810F4406F01D0002070470120704717
:104E4000042303EAD15310B518444369C1F3045154
:104E500007248C40A3438A401343436110BD0423BD
:104E600003EAD15310B518444369C1F30451072430
:104E70008C40A3438A401343436110BD00EB810083
:104E8000016E21F0004111430166704700EB810083
:104E9000016E21F00041114301667047F0B59BB0EF
:104EA00000241794189420210FA81994FBF794FA62
:104EB0003C216846FBF790FA31484FF0A0410125AC
:104EC00001604FF40021C0E9011400F11001042633
:104ED000C46081E8700004774477056280F824405C
:104EE000C462046380F83840C46380F84040FCF733
:104EF00063FD08B1FBF73DFD17A921481794FCF7A6
:104F0000A1F908B1FBF735FD1E480F9010A9062046
:104F10007F2781E89100CDE913640FA91848FCF7B9
:104F2000FDF908B1FBF725FD1748009001A90920FC
:104F300081E8A100CDE904640220089084200A9051
:104F40008DF8244080208DF825400B908DF8264068
:104F50008DF8304069460A48FBF784FD08B1FBF73D
:104F600008FD0A48009040F20F100190694604487D
:104F7000FBF778FD002801D0FBF7FBFC1BB0F0BD70
:104F80002C0100200008302E0800900C0010603228
:104F9000F0B597B03C216846FBF71EFA20210FA818
:104FA000FBF71AFA2748264900240160C902C0E924
:104FB0000114C46004250461C0E905450477447701
:104FC0000126066280F82440C462046380F83840F9
:104FD000C46380F84040FCF7EFFC08B1FBF7C9FC64
:104FE0001948009001A909207F2781E8C100CDE977
:104FF000045484200A908DF8244080208DF82540A8
:105000000B9008968DF826408DF8304069460D4883
:10501000FBF728FD08B1FBF7ACFC0C480F9010A97A
:10502000062081E89100CDE913540FA90548FCF74B
:1050300075F9002801D0FBF79CFC17B0F0BD00000B
:1050400000010050980100200800900C020030047C
:105050000C4810B50A490160891541604021816002
:1050600000210161C160416111218161FCF72EFFC6
:10507000002803D0BDE81040FBF77BBC10BD00004A
:10508000000201400402002000B58DB030216846C6
:10509000FBF7A2F91149104808600846FDF7D6F859
:1050A00008B1FBF766FC002002218DF804008DF8A2
:1050B00005000290CDE906100091CDE904010390AE
:1050C000024669460548FCF7E7FF002801D0FBF7D8
:1050D00050FC0DB000BD0000001000503C0200204C
:1050E0000D4808B5816C41F004018164816C01F0C8
:1050F00004010091816C41F001018164806C002207
:1051000000F00100009011460B20FDF751FEBDE8B4
:1051100008400B20FDF73EBE0010024030B587B0BE
:1051200014216846FBF758F92248C16C41F004018C
:10513000C164C16C01F004010591C16C41F0200112
:10514000C164C16C01F020010591C16C41F0010105
:10515000C164C16C01F001010591C16C41F0020113
:10516000C164C06C144D00F0020005900022502173
:105170002846FDF796FD4FF4305000900F4800246C
:10518000CDE9010469462846FDF7A2FC50200090B5
:105190000120CDE90104694628460394FDF798FCF7
:1051A000002202212820FDF703FE2820FDF7F2FD52
:1051B00007B030BD00100240000800480000111088
:1051C0000B4810B509490160002141608160C16050
:1051D000016101758161C162FDF71CFE002803D0E9
:1051E000BDE81040FBF7C5BB10BD00000003014047
:1051F000B40200200B4810B509490160002141604C
:105200008160C160016101758161C162FDF702FECB
:10521000002803D0BDE81040FBF7ABBB10BD000079
:1052200004030140F00200200B4810B50949016059
:10523000002141608160C160016101758161C162CD
:10524000FDF7E8FD002803D0BDE81040FBF791BB57
:1052500010BD0000080301402C0300202DE9F0419F
:105260009EB000241A941B941C941D9414941594BD
:105270001694179418941C2168461994FBF7ACF8FF
:10528000342107A8FBF7A8F8434842490127C0E9A1
:1052900000142021816042F23311C1604FF480710B
:1052A0008461C0E90417FEF7C2FD08B1FBF761FB9A
:1052B0004FF480581AA93848CDF86880FEF7B8FE38
:1052C00008B1FBF756FB3448FFF798F908B1FBF734
:1052D00050FB7026CDE9146414A92F481694FEF7EC
:1052E000C7FC08B1FBF745FBCDE91874022517AAE6
:1052F000012129481795FEF7E9FB08B1FBF739FBB7
:105300006020CDE9000402940394049405940022E3
:10531000694621480694FFF7E2F808B1FBF729FB3C
:10532000042269461C48FFF7DAF808B1FBF721FBB5
:10533000082269461848FFF7D2F808B1FBF719FBB5
:1053400042F23210CDE900600C2269461248FFF7A4
:10535000C6F808B1FBF70DFB079478200894CDE957
:105360000940CDE90D544FF40050CDE90B80000306
:10537000CDE90F401194129407A907481394FEF742
:105380004FFB08B1FBF7F5FA0348FFF75DF81EB0D5
:10539000BDE8F081002C01406803002010B58CB0FE
:1053A000002405941F4804940694079400940394E1
:1053B000019402940894099419490A9401603121D6
:1053C000C0E901144FF6FF71C0E903148461FEF7D0
:1053D0002EFD08B1FBF7CDFA4FF48050049004A9DC
:1053E0001048FEF725FE08B1FBF7C3FA0F20009422
:1053F000CDE9014069460B480394FEF7C9FB08B1AB
:10540000FBF7B7FA5020089008A90A940548FEF760
:105410002FFC002801D0FBF7ACFA0CB010BD000047
:1054200000080040B4030020184810B51649016078
:105430004FF461214160002181600C22C160C0E90C
:1054400004128161C161016241628162FFF7B0FBB8
:1054500008B1FBF78EFA00210C48FFF73EFA08B1BD
:10546000FBF787FA00210948FFF711FA08B1FBF7AB
:1054700080FA0648FFF7EAF9002803D0BDE810409B
:10548000FBF777BA10BD0000004800400004002080
:10549000FEE7000001480078704700004800002047
:1054A00010B500F003FB00F075FA00F041FA1D485A
:1054B000DFED1E1A9FED1E2AC0ED031A9FED1D0A97
:1054C00080ED042ADFED160A9FED171A80ED020A1F
:1054D0001449C0EC020A1430C0ED031A80ED042A0E
:1054E00080ED020AC0EC020A1430DFED130AA0F1CD
:1054F0001402C0ED000ADFED110AC0ED010AF0EE62
:10550000080AC0ED030A80ED040A80ED020A703833
:1055100000F03EF90A4840680068BDE810400047C6
:10552000B81E853ED006002000000C421F85474172
:105530001F8547C100000000A69B443B0AD7A33C3F
:1055400048000020014901204870704748000020B1
:105550000149002048707047480000202DE9F041C3
:105560007E4C00272DED028B607800B927707C4AB5
:10557000A2F10805291D284600F06AFA00F04AFA4F
:1055800085ED030A6068D5ED081A95ED071A4068A5
:10559000D5ED0E0A95ED0D0A804720789FED718AB2
:1055A00005F1700640B1F7EE000A01281DD002286F
:1055B0002BD0032828D169E000F0ECF9684A543276
:1055C000A2F11401A1F1480000F0E2F8606800685F
:1055D000804786ED028A84ED038AA76060780128FF
:1055E00002D1207000F0F4F9A0E085ED048AC5ED49
:1055F000050A85ED068AA068401CA060B0F5FA6F28
:1056000002D302202070A76093E086ED028A94ED19
:10561000040AB6EE001A544930EE010A10EE100AE0
:1056200084ED040A884203DD9FED500A84ED040AEC
:105630009FED4F1A20EE010AB1EE001A20EE011A7A
:1056400094ED030ADFED4B1A4B4901EE210A10EEEF
:10565000100A84ED030A884205DD9FED481A30EEFA
:10566000410A84ED030A85ED040A85ED058AC5ED3E
:10567000060AA0684CF25031401CA060884202D259
:105680006068007CE8B30320207052E060688068A6
:10569000804785ED040A85ED058AA078401CC0B2DC
:1056A000A0700A2842D3A7706068C0688047DFED09
:1056B000340A9FED341A20EE200AF5EE000A60EE5F
:1056C000200A94ED060A20EE010A9FED2F1A00EE43
:1056D000810A84ED060AD4ED050A96ED001A70EEF3
:1056E000C01A96ED020AF0EE400A01EE210A96ED8C
:1056F000031AB4EEC01AF1EE10FA08D996ED041AA6
:1057000000E016E0B4EEC01AF1EE10FA02DBB0EEE3
:10571000410A09E096ED011A21EE211ADFED1B1A6C
:1057200041EE210AC6ED020A85ED060A207800281E
:1057300010D00B4A5432A2F11401A1F1480000F03C
:105740003BF83C3595EC030ABDEC028BBDE8F0411B
:1057500000F0FAB9BDEC028BBDE8F08148000020F2
:10576000900600200000000000007A4400007A4407
:105770004877D63D17B7D138DA0FC940DA0FC9409C
:10578000EBC918416666663FCDCCCC3D6F12833ABB
:105790009FED080A80ED0F0A80ED100A80ED110AD6
:1057A00080ED050A80ED060A81ED020A82ED020A0B
:1057B000704700000000000070B515462DED048B09
:1057C0000E46044690ED040AFAF792FEB0EE409AB7
:1057D00094ED040AFAF73CFE94ED038AF0EE408A59
:1057E00018EE100AB0F17E5F01DAB7EE008A94ED90
:1057F000011AD4ED020A94ED000A71EE201A9FED11
:10580000472A20EE020A9FED462A71EE600A01EE59
:10581000C20A84ED070A9FED431A20EE811A60EE5A
:10582000280A84ED081A41EE090A21EE281A00EE32
:10583000491AC4ED090A84ED0A1A94ED050ADFED50
:105840003A9A3046B0EE691A00F0D3F984ED0B0AAB
:10585000D4ED0A0A94ED060AB0EE691A284600F063
:10586000C8F984ED0C0AD4ED0B0AFEEE002A9FED78
:105870002F2A60EEA81A20EE891A40EE491A00EE8F
:10588000281AC4ED0D1A61EEA20A84ED0E1AB0EECC
:10589000600A41EE020A01EE420AB0EE611AF4EE2D
:1058A000C10AF1EE10FA01DDB0EE601AB4EEC10AE1
:1058B000F1EE10FA01DDB0EE401AB0EE612AF4EE1E
:1058C000C20AF1EE10FA01D2B0EE602AB4EEC20ABA
:1058D000F1EE10FA01D2B0EE402A31EE021A21EEBA
:1058E000221A71EE811A30EE010A81EE882AF6EE54
:1058F000001A31EEC22A84ED0F2A30EE812AC2EE60
:10590000080A71EEE00AC4ED100AC0EE080A31EE92
:10591000E00A84ED110ABDEC048B70BDABAA2A3FEE
:10592000ABAAAA3E3ACD133F17B7D138D7B35D3FE4
:105930002DE9F04100273E463D4600F02BF80A20B5
:10594000FCF78AFE00244FF0A0480F48FBF770FBDD
:105950000E48FBF76DFB0120FCF77EFE404650F839
:10596000801F0F44D0F8001140680E44641CE4B25C
:105970000544402CE9D30648B9090160B1094160EA
:10598000A9098160BDE8F0812C0100209801002068
:105990006400002010B500210C48FEF7E1FE042150
:1059A0000A48FEF7DDFE08210848FEF7D9FE00216F
:1059B0000648FEF707FA04210448FEF703FABDE89B
:1059C000104008210148FEF7FDB9000068030020DF
:1059D00010B500210E48FEF745FE04210C48FEF7E5
:1059E00041FE08210A48FEF73DFE00210848FEF767
:1059F0008DF904210648FEF789F908210448FEF7CD
:105A000085F9BDE810400C210148FEF72BBE0000CF
:105A10006803002010B50B48FCF7BAF90A210948C1
:105A2000FCF738F910B19FED080A10BD0548FBF7E7
:105A300089FE00EE100ADFED050AB8EE400A20EEFE
:105A4000200A10BD98010020000000009999AB3C8D
:105A5000F0B54FF0A04353F8806FD3F800415D6874
:105A6000104B1F68F61B00EE106AF8EEC00A9FED9F
:105A70000E0A60EE800AC0ED000A5868201A00EE97
:105A8000900AF8EEE00A60EE800AC1ED000A98681C
:105A9000281A00EE900AF8EEE00A20EE800A82ED65
:105AA000000AF0BD640000200000B43C10B5FFF710
:105AB00035FBFFF715FBFFF7F1F9FFF769FAFFF781
:105AC0007FFBFFF797FBFFF7AFFBFFF7C7FBFFF786
:105AD00065FCFFF7BDFAFFF7D7FA1348FDF766FA42
